:100000000C945D050C9485050C9485050C94850570
:100010000C9485050C9485050C9485050C94850538
:100020000C9485050C9485050C9485050C94850528
:100030000C9485050C9485050C9485050C94850518
:100040000C94FE180C9485050C946E190C944819A8
:100050000C9485050C9485050C9485050C948505F8
:100060000C94A0190C9485052200FF2100000000CB
:10007000003844443800000000003E5B4F5B3E3EC9
:100080006B4F6B3E1C3E7C3E1C183C7E3C181C5744
:100090007D571C1C5E7F5E1C00183C1800FFE7C3E8
:1000A000E7FF0018241800FFE7DBE7FF30483A06B7
:1000B0000E2629792926407F050507407F05253F23
:1000C0005A3CE73C5A7F3E1C1C08081C1C3E7F140F
:1000D000227F22145F5F005F5F06097F017F006659
:1000E00089956A606060606094A2FFA29408047EB3
:1000F000040810207E201008082A1C08081C2A0862
:10010000081E101010100C1E0C1E0C30383E38301B
:10011000060E3E0E06000000000000005F0000001A
:1001200007000700147F147F14242A7F2A12231348
:1001300008646236495620500008070300001C225C
:1001400041000041221C002A1C7F1C2A08083E088E
:10015000080080703000080808080800006060008F
:1001600020100804023E5149453E00427F40007283
:10017000494949462141494D331814127F102745FA
:100180004545393C4A494931412111090736494918
:100190004936464949291E00001400000040340039
:1001A00000000814224114141414140041221408ED
:1001B00002015909063E415D594E7C1211127C7FA5
:1001C000494949363E414141227F4141413E7F49B3
:1001D0004949417F090909013E414151737F08089E
:1001E000087F00417F41002040413F017F081422E9
:1001F000417F404040407F021C027F7F0408107F07
:100200003E4141413E7F090909063E4151215E7F41
:1002100009192946264949493203017F01033F4014
:1002200040403F1F2040201F3F4038403F6314089C
:10023000146303047804036159494D43007F41412D
:10024000410204081020004141417F0402010204E0
:100250004040404040000307080020545478407F4D
:10026000284444383844444428384444287F385487
:1002700054541800087E090218A4A49C787F08042E
:10028000047800447D40002040403D007F10284419
:100290000000417F40007C047804787C08040478E6
:1002A0003844444438FC1824241818242418FC7CAE
:1002B00008040408485454542404043F44243C4093
:1002C00040207C1C2040201C3C4030403C442810F6
:1002D00028444C9090907C4464544C44000836412F
:1002E000000000770000004136080002010204020D
:1002F0003C2623263C1EA1A161123A4040207A38B8
:100300005454555921555579412254547842215518
:1003100054784020545579400C1E5272123955556C
:100320005559395454545939555454580000457C42
:10033000410002457D420001457C407D1211127D45
:10034000F0282528F07C545545002054547C547CDA
:100350000A097F4932494949323A4444443A324AC7
:100360004848303A4141217A3A42402078009DA0E5
:10037000A07D3D4242423D3D4040403D3C24FF2463
:1003800024487E4943662B2FFC2F2BFF0929F6209A
:10039000C0887E090320545479410000447D4130D7
:1003A00048484A32384040227A007A0A0A727D0D63
:1003B00019317D2629292F28262929292630484D1B
:1003C0004020380808080808080808382F10C8AC6A
:1003D000BA2F102834FA00007B000008142A1422D7
:1003E00022142A14085500550055AA55AA55AAFFEB
:1003F00055FF55FF000000FF00101010FF001414FF
:1004000014FF001010FF00FF1010F010F01414146F
:10041000FC001414F700FF0000FF00FF1414F404A4
:10042000FC141417101F10101F101F1414141F0099
:10043000101010F0000000001F101010101F1010FE
:100440001010F010000000FF10101010101010100D
:1004500010FF10000000FF140000FF00FF00001F4D
:1004600010170000FC04F414141710171414F404EB
:10047000F40000FF00F714141414141414F700F718
:10048000141414171410101F101F141414F4141043
:1004900010F010F000001F101F0000001F140000DB
:1004A00000FC140000F010F01010FF10FF141414E2
:1004B000FF141010101F00000000F010FFFFFFFFDE
:1004C000FFF0F0F0F0F0FFFFFF0000000000FFFF82
:1004D0000F0F0F0F0F3844443844FC4A4A4A347E09
:1004E00002020606027E027E0263554941633844D9
:1004F000443C04407E201E2006027E020299A5E7AD
:10050000A5991C2A492A1C4C7201724C304A4D4D47
:10051000303048784830BC625A463D3E494949002F
:100520007E0101017E2A2A2A2A2A44445F4444404B
:10053000514A444040444A51400000FF0103E080DA
:10054000FF000008086B6B083612362436060F09C8
:100550000F06000018180000001010003040FF01C6
:1005600001001F01011E00191D1712003C3C3C3CFC
:100570000000000000000103070F1F3F7F0080C044
:10058000E0F0F8FCFEDB40A4A62EAF2000A1C8D30B
:1005900000408DAED580A800006000000000000083
:1005A0000000000000000000E0000000000000006B
:1005B00000000000000001E000000000000000005A
:1005C000000000000001F00000000000000000003A
:1005D0000000000003F00000000000000000000028
:1005E00000000007F0000000000000000000000014
:1005F000000007F8000000000000000000000000FC
:10060000000FF800000003C0007E000001E0007F42
:100610000FF800000003C000FE000001E000FFEF43
:10062000F800000003C000FE000001E000FFFFF83A
:1006300000000003C000F00000000F007FFE7FC03C
:10064000000003C000F00000000F003FFE7FF83FF5
:10065000F1FBCFFCFEF3BC3DEFE01FFE7FFF7FFB15
:10066000FFDFFEFEFFBC3DEFE01FC6FFFF7FFBFF8D
:10067000DFFEFEFFBC3DEFE00FE3C7FE787BC3DE8D
:100680001EF0FFBC3DEF0007FF87FC787BC3DE1E3A
:10069000F0F83C3DEF0001FFFFF0007BC3C01EF00F
:1006A000F03C3DEF0001F37FE03FFBC3CFFEF0F0F5
:1006B0003C3DEF0003E33F807FFBC3DFFEF0F03CF7
:1006C0003DEF0007E73C00787BC3DE1EF0F03C3DC9
:1006D000EF0007FFBE00787BC3DE1EF0F03C3DEF6D
:1006E0000007FFFE00787BC3DE1EF0F03C3DEF000C
:1006F0000FFFFE007FFBFFDFFEF0F03FFDEFE00F9E
:10070000FFFF007FFBFFDFFEF0F03FFDEFE00FF9A2
:10071000FF003E79F9CF9EF0F01F3DE7E01FF1FFAB
:100720000000000000000000000000001F80FF002B
:100730007FFFFFFFFFFFFFFFFFFFE01C007F007F49
:10074000FFFFFFFEB46D888D18E000001F007FFFE3
:10075000FFFFFE95AD7DB577E000000F007FFFFF46
:10076000FFFEA5AD9D8D19E0000006007FFFFFFF95
:10077000FEB5ADEDB57EE000000000000180000098
:1007800000000000000000038000000000000000E6
:10079000000007C000000000000000000007C000CB
:1007A00000000000000000000FC00000000000007A
:1007B0000000001FE00000000000000000001FE03B
:1007C0000000000000000000003FE000000000000A
:1007D000000000003FF00000000000000000007F6B
:1007E000F0000000000000001FF87FF00000000093
:1007F0000000003FFE7FF0000000000000003FFF0F
:100800007FF0000000000000001FFFFBE000000080
:10081000000000000FFFF9FFC00000000000000F03
:10082000FFF9FFF800000000000007FFF1FFFF00E4
:10083000000000000003FC73FFFF800000000000C8
:1008400001FE3FFFFF80000000000000FF1E0FFFC1
:10085000000000000000007FFE1FFC000000000000
:1008600000003FFFFFF8000000000000000FDFFF66
:10087000E0000000000000001F19FFC000000000A1
:100880000000003F3CFF00000000000000007E7CF4
:10089000F800000000000000007FFE7C0000000067
:1008A00000000000FFFFFC0000000000000000FF4F
:1008B000FFFE0000000000000000FFFFFE0000003F
:1008C0000000000001FFEFFE00000000000000013A
:1008D000FFCFFE0000000000000003FF07FE000045
:1008E000000000000003FC07FE0000000000000004
:1008F00003F003FE00000000000000018000FE0085
:100900000000000000000000007E00000000000069
:10091000000000003E000000000000000000000C8D
:10092000000000000000078000FC000003C0000081
:1009300000078001FC000003C0000000078001FCEC
:10094000000003C0000000078001E00000001E005E
:100950000000078001E00000001E007FE3F79FF920
:10096000FDE7787BDFC0FFF7FFBFFDFDFF787BDF92
:10097000C0FFF7FFBFFDFDFF787BDFC0F0F787BC4E
:100980003DE1FF787BDE00F0F787BC3DE1F0787B4E
:10099000DE0000F787803DE1E0787BDE007FF787AF
:1009A0009FFDE1E0787BDE00FFF787BFFDE1E078A7
:1009B0007BDE00F0F787BC3DE1E0787BDE00F0F7FE
:1009C00087BC3DE1E0787BDE00F0F787BC3DE1E0ED
:1009D000787BDE00FFF7FFBFFDE1E07FFBDFC0FFBC
:1009E000F7FFBFFDE1E07FFBDFC07CF3F39F3DE15C
:1009F000E03E7BCFC00000000000000000000000CF
:100A0000FFFFFFFFFFFFFFFFFFFFC0FFFFFFFFFD37
:100A100068DB111A31C0FFFFFFFFFD2B5AFB6AEFA5
:100A2000C0FFFFFFFFFD4B5B3B1A33C0FFFFFFFF23
:100A3000FD6B5BDB6AFDC0535344313330362061BC
:100A40006C6C6F636174696F6E206661696C65645C
:100A50000031353A34373A32320041756720203957
:100A60002032303233000000000800020100000391
:100A70000407000000000000000000000000250046
:100A800028002B0000000000240027002A00040496
:100A90000404040404040202020202020303030326
:100AA0000303010204081020408001020408102002
:100AB000010204081020CC1A511F11241FBECFEFD1
:100AC000D8E0DEBFCDBF23E0A8EDB1E001C01D92AC
:100AD000AB38B207E1F711E0A0E0B1E0E6E6F7E4F9
:100AE00002C005900D92A83DB107D9F715E0CCE5FD
:100AF000D5E004C02197FE010E94CE1FCB35D1075F
:100B0000C9F70E944F1B0C94A6230C940000089573
:100B10002F923F924F925F926F927F928F929F920D
:100B2000AF92BF92CF92DF92EF92FF920F931F93FB
:100B3000CF93DF93CDB7DEB76D970FB6F894DEBFD6
:100B40000FBECDBF7A8769875C874B873E872D872D
:100B5000188B0F87FB0111821082FA01118210821B
:100B6000F80111821082F901118210822090600335
:100B70003090610320915E032C83F0905B032F2D56
:100B800030E0388F2F8B46E0F49E900111243E8395
:100B90002D83A0904F03B0905003E0905C03E8E0F9
:100BA000EE9E6001112491012C5F3F4F3A8B298BFF
:100BB0002E5F3F4F3C8B2B8B245031093A8F298F6E
:100BC0002A5F3F4F3B832A8398878F8344244A942C
:100BD000542CAFEFBFEF8FEF9FE79C8F8B8F0FEF02
:100BE0001FE770E060E050E040E0EF81F885819120
:100BF000F887EF83882309F4C0C02114310409F475
:100C000087C08A3041F4EA81FB8184918E9D600D1A
:100C1000711D1124E8CF8D3041F3E989FA8994914F
:100C2000EB89FC892491891700F32817F0F2E98DEC
:100C3000FA8D25913491891BF7E08F9F200D311D8E
:100C40001124F901329684918983319694919D8B78
:100C5000319684918E8B319684912A5F3F4FF901B2
:100C6000F491FD8F2C812223F1F03981632E712CB8
:100C7000680E711C87FD7A942F89388D629E400121
:100C8000639E900C729E900C1124840E951EA814E5
:100C9000B9044CF4EA81FB8194919E9D600D711D15
:100CA000112450E040E02F2D382F3203C0011124D1
:100CB000840F951F2E2D3D8D3203F00111249F01CD
:100CC000260F371F801791070CF48C01EB8DFC8DDC
:100CD0002E173F0714F43C8F2B8FF981FF9D800D59
:100CE000911D11240197A817B9070CF4DC018D8917
:100CF0008E9D200D311D11242150310942165306BD
:100D00000CF429019E899F9D400D511D11246DCF2A
:100D10008A3019F46C0D7D1D66CF8D3009F465CFD6
:100D20002C81222359F08D819E81840F951FA81656
:100D3000B90624F46C0D7D1D50E040E02D813E810C
:100D4000240F351FC9010197A817B9070CF4DC015E
:100D5000C601860F971F0197481659060CF42C01FF
:100D6000401751070CF48A018B8D9C8D6817790709
:100D700014F47C8F6B8FA90138CFA017B1075CF0FA
:100D8000E985FA8511830083A01BB10B1196ED85CF
:100D9000FE85B183A0832B8D3C8D421653066CF0EB
:100DA000EB85FC8531832083421A530AFFEF4F1AEB
:100DB0005F0AEF85F889518240826D960FB6F894EC
:100DC000DEBF0FBECDBFDF91CF911F910F91FF907E
:100DD000EF90DF90CF90BF90AF909F908F907F90DB
:100DE0006F905F904F903F902F90089590E0FC019E
:100DF000EE55F54F24918257954FFC01849188233D
:100E000099F090E0880F991FFC01EC57F54FA591E0
:100E1000B491FC01E658F54F859194918FB7F89401
:100E2000EC91E22BEC938FBF08950895089590E024
:100E3000FC01EA59F54F2491FC01EE55F54F349130
:100E4000FC01E257F54FE491EE23C9F0222339F07B
:100E5000233001F1A8F4213019F1223029F1F0E01A
:100E6000EE0FFF1FE658F54FA591B4918FB7F89498
:100E7000EC91611126C030953E233C938FBF0895BD
:100E80002730A9F02830C9F0243049F7809180003C
:100E90008F7D03C0809180008F7780938000DFCFAB
:100EA00084B58F7784BDDBCF84B58F7DFBCF8091F8
:100EB000B0008F778093B000D2CF8091B0008F7D4B
:100EC000F9CF3E2BDACF3FB7F8948091240290916E
:100ED0002502A0912602B091270226B5A89B05C045
:100EE0002F3F19F00196A11DB11D3FBFBA2FA92FA9
:100EF000982F8827BC01CD01620F711D811D911DA6
:100F000042E0660F771F881F991F4A95D1F7089511
:100F10008F929F92AF92BF92CF92DF92EF92FF9209
:100F20004B015C010E9463076B017C010E94630717
:100F30006C197D098E099F09683E734081059105F2
:100F4000A8F321E0821A9108A108B10888EEC80E22
:100F500083E0D81EE11CF11C81149104A104B104AA
:100F600029F7FF90EF90DF90CF90BF90AF909F90C8
:100F70008F900895AF92BF92CF92DF92EF92FF923F
:100F80000F931F93CF93DF936C017B018B01040FB1
:100F9000151FEB015E01AE18BF08C017D10759F04D
:100FA0006991D601ED91FC910190F081E02DC6018F
:100FB0000995892B79F7C501DF91CF911F910F9189
:100FC000FF90EF90DF90CF90BF90AF900895FC011D
:100FD000538D448D252F30E0842F90E0821B930B9E
:100FE000541710F0CF96089501970895FC01918D44
:100FF000828D981761F0A28DAE0FBF2FB11D5D9647
:101000008C91928D9F5F9F73928F90E008958FEFE8
:101010009FEF0895FC01918D828D981731F0828D9C
:10102000E80FF11D858D90E008958FEF9FEF0895F3
:10103000FC01918D228D892F90E0805C9F4F821B57
:1010400091098F73992708958EE992E00E941808FC
:1010500021E0892B09F420E0822F089580E090E0C0
:10106000892B29F00E94240881110C940000089516
:10107000FC01A48DA80FB92FB11DA35ABF4F2C910D
:10108000848D90E001968F739927848FA689B78904
:101090002C93A089B1898C91837080648C93938DFB
:1010A000848D981306C00288F389E02D80818F7D9E
:1010B00080830895EF92FF920F931F93CF93DF9356
:1010C000EC0181E0888F9B8D8C8D98131AC0E88984
:1010D000F989808185FF15C09FB7F894EE89FF8953
:1010E0006083E889F98980818370806480839FBFF1
:1010F00081E090E0DF91CF911F910F91FF90EF90F1
:101100000895F62E0B8D10E00F5F1F4F0F73112700
:10111000E02E8C8D8E110CC00FB607FCFACFE8893B
:10112000F989808185FFF5CFCE010E943808F1CF83
:10113000EB8DEC0FFD2FF11DE35AFF4FF0829FB7AF
:10114000F8940B8FEA89FB8980818062CFCFCF939F
:10115000DF93EC01888D8823B9F0AA89BB89E889DF
:10116000F9898C9185FD03C0808186FD0DC00FB685
:1011700007FCF7CF8C9185FFF2CF808185FFEDCF03
:10118000CE010E943808E9CFDF91CF910895EF9208
:10119000FF920F931F93CF93DF93EC01EC80FD80C0
:1011A0006E157F050CF070C057FF04C0240F351F6B
:1011B00050E040E08E819F81FA01E20FF31F8E170D
:1011C0009F071CF49C01241B350B121613060CF010
:1011D0005BC0922F842F8695869586958E9DD00133
:1011E0008F9DB00D11246A0F7B1FAF8DB8A1A60F84
:1011F000B71F477049F188E0841B482F682F70E0C3
:10120000FB01E358FA4FE491281708F063C0621B12
:1012100071092FEF30E002C0359527956A95E2F706
:10122000E2230130110539F0B0F10230110561F50A
:101230008C91E82702C08C91E82BEC93941720F155
:101240002C813D81A20FB31FE92FE41BE83078F019
:101250000230110521F58E2F9C9190959C932C8145
:101260003D81A20FB31F88508830B0F7E770EE239E
:1012700059F0F0E0EB58FA4FE49101301105F9F024
:1012800010F10230110519F1DF91CF911F910F91EB
:10129000FF90EF900895E0958C91E823CECF81E008
:1012A0000115110509F480E081959E2F8C932C8106
:1012B0003D81A20FB31F98509830C0F7D7CF8C91C3
:1012C000E82BEC93E1CFE0958C91E823FACF8C9159
:1012D000E827F7CF0130110509F4ADCFE0F2023075
:1012E000110509F4A5CFAE0DBF1DAECF0F931F930F
:1012F000CF93DF9377FF04C0260F371F70E060E0C5
:10130000DC011496CD91DC91FB01E20FF31FCE17A7
:10131000DF071CF49E01261B370B121613064CF533
:10132000FA0157FD3796A3E0F595E795AA95E1F701
:10133000EC9FD001ED9FB00DFC9FB00D11246A0F02
:101340007B1FDC015F96ED91FC91E60FF71F477064
:10135000552781E090E001C0880F4A95EAF7482FB1
:101360000130110559F0A8F02E0F3F1F0230110572
:10137000E1F0DF91CF911F910F9108952E0F3F1F44
:10138000E217F307B1F38191DF011197842B8C935E
:10139000F7CF80952E0F3F1FE217F30751F391917E
:1013A000DF01119798239C93F7CFE217F30709F316
:1013B0008191DF01119784278C93F7CF0F931F93AF
:1013C000FA01DC0156964C9156974230E9F04330D1
:1013D000A1F1413061F514964D915C91DA01AE1B9B
:1013E000BF0BFD01E21BF30B77FD0BC0DC01169672
:1013F0004D915C916417750724F4AB01BF010E9405
:1014000076091F910F91089514964D915C91DA0120
:10141000A61BB70BBD0161507109DC0116964D91F9
:101420005C91DA01AE1BBF0BFD01E21BF30B77FDF4
:10143000E8CFAF010E94C708E4CF16964D915C91AA
:10144000DA01A61BB70BBD0161507109CDCF0F9317
:101450001F93FA01DC0156964C9156974230A9F041
:10146000433091F1413019F514964D915C91DA01B8
:10147000AE1BBF0BFD013197F7FD04C0AB01BF01EF
:101480000E94C7081F910F91089514964D915C9189
:10149000DA01A61BB70BBD01DC0116964D915C91DC
:1014A000DA01AE1BBF0BFD013197621B730BF7FD19
:1014B000E9CFDC0116964D915C91E417F50714F71E
:1014C000AF010E947609DECF16964D915C91DA014C
:1014D000A61BB70BBD01621B730BCECFFC0177FDC2
:1014E00064C080859185681779070CF05EC057FD50
:1014F0005CC082859385481759070CF056C08689D1
:101500008230B1F0833029F1813041F484819581BA
:10151000841B950BAB01BC01615071092130310571
:1015200009F108F443C02230310509F463C008957D
:1015300084819581DC01A61BB70BBD016150710947
:1015400086819781DC01A41BB50BAD014150510987
:10155000E5CF86819781861B970BBA01AC0141507C
:101560005109DCCFCA0157FD0796A3E095958795F1
:10157000AA95E1F7A481B5818A9F90018B9F300DD8
:101580009A9F300D1124620F731F078CF0A1E02D7C
:10159000E60FF71F4770552721E030E001C0220F0A
:1015A0004A95EAF78081822B80830895CA0157FD0E
:1015B000079633E0959587953A95E1F7A481B58133
:1015C0008A9F90018B9F300D9A9F300D1124620FDE
:1015D000731F078CF0A1E02DE60FF71F477055270A
:1015E00081E090E001C0880F4A95EAF780959081EC
:1015F0008923DACFCA0157FD079623E09595879591
:101600002A95E1F7A481B5818A9F90018B9F300DC7
:101610009A9F300D1124620F731F078CF0A1E02DEB
:10162000E60FF71F4770552721E030E001C0220F79
:101630004A95EAF780818227B7CF08958EBD0000D2
:101640000DB407FEFDCF8EB508958CBD9DBD0895E8
:101650000895FC016370668B8481958126813781B2
:10166000613039F0633029F0918780873387228792
:101670000895318720879387828708952F923F921C
:101680004F925F926F927F928F929F92AF92BF9292
:10169000CF92DF92EF92FF920F931F93CF93DF933E
:1016A000CDB7DEB76A970FB6F894DEBF0FBECDBFD9
:1016B0009A8F898F7A8369834A01D22E18870F8384
:1016C0003701BC2CDC0159962D913C915A9721157C
:1016D000310509F015C118968D919C9119976817DD
:1016E00079070CF0D7C11A968D919C91481759072C
:1016F0000CF0D0C14C2C512CB6E0CB9E600D711D6E
:1017000011247C876B87161617060CF0C3C1EA2DCF
:10171000F0E0FA87E98793E0EE0FFF1F9A95E1F773
:10172000F88BEF87CF01840F951F181619060CF060
:10173000B1C1A98DBA8D58968C91811104C0BFEAB0
:10174000BD1508F4D394A98DBA8DED91FC91119734
:101750000284F385E02DCD010995B5E0DB9EC00143
:101760001124E981FA81FC83EB83312C212C9C012B
:101770002B583F4F388F2F8B4A2D50E05E8B4D8B6F
:10178000EF89F88DE20DF31D44919E828D82D12C5C
:10179000C12C69817A81620D731D7A8B698B842FCC
:1017A00090E09C8B8B8BE98DFA8DA081B18140FFFD
:1017B00082C0F1E0BF126FC0AF126DC01C96ED91F8
:1017C000FC912F813885A4014C0D5D1D69897A89B2
:1017D000898D9A8D0995EB89FC89F595E7954E2FB2
:1017E0005FEFC51AD50A6D817E818D899E89680F4C
:1017F000791F7E836D8398E0C916D10481F6AFEF1F
:101800002A1A3A0AEB81FC81E40DF51DFC83EB8377
:10181000F5E02F16310409F0B3CF2F813885261556
:101820003705B9F0A98DBA8DED91FC91B1E0BB12ED
:1018300057C0AB1255C069817A816B5F7F4F0088BA
:10184000F189E02D830128E030E0A401898D9A8D93
:101850000995A98DBA8DED91FC9111970688F789AC
:10186000E02DCD016A960FB6F894DEBF0FBECDBF56
:10187000DF91CF911F910F91FF90EF90DF90CF906C
:10188000BF90AF909F908F907F906F905F904F90A0
:101890003F902F9009941E96ED91FC91EF80F88473
:1018A00009851A8592014D815E816B817C81898DCC
:1018B0009A8D099590CF2F8138852615370509F423
:1018C0008ACF31E0B31207C0A31205C01C96ED9178
:1018D000FC91930178CF1E96ED91FC917301E0CFBE
:1018E0006B857C85641975090684F785E02D730185
:1018F0000F8518899201A401898D9A8D0995A9CF28
:10190000F90134969491329745915491D91AB7E0E0
:10191000DB9E400D511D1124F901259134913C8B22
:101920002B8BFA0125903490FA01329674903196FF
:101930003491398B329664903196449041E04C1545
:1019400018F04A1508F07FC0662D062C000C770BA6
:101950007C836B83842D042C000C990B9E838D83D8
:10196000A98DBA8DED91FC9111970284F385E02D3C
:10197000CD010995512CD12CC12CEA2DF0E0FA872C
:10198000E9872B2D30E03C872B87A401440D511DA6
:1019900047FC5A95588F4F8B69817A81660D711D6E
:1019A00067FC7A957E876D877989C71608F051CFD5
:1019B0002C2D30E04D815E81420F531FA985BA85E1
:1019C0004A9FC0014B9F900D5A9F900D1124FC011E
:1019D000E80DF91DF88BEF87852D612C4F89588D07
:1019E000420F531F5E8B4D8B671408F050C0442488
:1019F0004394480E877041F4C1010196EB89FC893C
:101A0000E20DF31DD4901C01D7FE19C0A98DBA8D2B
:101A1000ED91FC91662D70E0B1E0BB1219C0AB12E4
:101A200017C02D853E85620F731F0484F585E02D58
:101A30002F8138854D895E89898D9A8D0995DD0CB8
:101A40006394842DD1CF1E821D821C821B8288CF7D
:101A50004B815C81640F751FAB85BC856A9FC0019B
:101A60006B9F900D7A9F900D112469817A81680F88
:101A7000791F0684F785E02DEF80F88409851A85A3
:101A80009D014F855889898D9A8D0995D8CF570C1E
:101A9000C3948ACF6A960FB6F894DEBF0FBECDBF4F
:101AA000DF91CF911F910F91FF90EF90DF90CF903A
:101AB000BF90AF909F908F907F906F905F904F906E
:101AC0003F902F9008958F929F92AF92CF92EF9276
:101AD000FF920F931F93CF93DF93EC01262F898DF5
:101AE0009A8D009709F051C06A30D1F41D861C868A
:101AF0008D8948E0849F900111248E859F85820FF7
:101B0000931F9F878E8781E090E0DF91CF911F9197
:101B10000F91FF90EF90CF90AF909F908F9008958E
:101B20006D3089F3CC88AD888F898823C1F08C858E
:101B30009D8536E0C39E800D911D112448855985F1
:101B40004817590764F44E855F851D861C8638E06A
:101B5000A39EC0011124840F951F9F878E87EA885A
:101B6000FB88088919894E855F856C857D85CE0146
:101B70000E943E0B2C898C859D8546E0249F800D1C
:101B8000911D11249D878C87BECF6A3069F41D8614
:101B90001C86FC013896E4912D898E859F85E29FF5
:101BA000800D911D1124ADCF6D3009F4ACCFFC0137
:101BB00034963491631708F4A6CF3296E491E61771
:101BC00008F4A1CFFC01329685909490462F431BD8
:101BD000342F47E0349F800C911C1124F40132967D
:101BE00034913196E4913323A9F1EE2399F1CC8815
:101BF000F4013596E491AD884F89442301F10E2E0E
:101C0000000CFF0BE30FF11DCE9EA001CF9E500DE7
:101C100011246C857D85460F571F6885798564176B
:101C200075076CF44E855F851D861C86FC01389611
:101C3000E491AE9E400D511D11245F874E87EA88C6
:101C4000FB88088919894E855F856C857D85CE0165
:101C50000E943E0BF4013496E4912C898C859D857D
:101C6000E29F800D911D11248DCF6F927F928F92F4
:101C70009F92AF92BF92CF92DF92EF92FF920F931B
:101C80001F93CF93DF93EC016B015A013901480197
:101C9000E881F9810284F385E02D0995E881F981D5
:101CA0000288F389E02D87019301A501B601CE01D9
:101CB0000995A501480D591D41505109E881F98147
:101CC0000288F389E02D9301B601CE010995E881E0
:101CD000F9810088F189E02D9401A501B601CE01BA
:101CE0000995C60CD71CB60161507109E881F981CC
:101CF0000088F189E02D9401A501CE010995E881C4
:101D0000F9810688F789E02DCE01DF91CF911F91EF
:101D10000F91FF90EF90DF90CF90BF90AF909F908A
:101D20008F907F906F9009946F927F928F929F9285
:101D3000AF92BF92CF92DF92EF92FF920F931F93D9
:101D4000CF93DF935C01EB016A0149013801870100
:101D5000DC01ED91FC916217730719F564167506A5
:101D60002CF0962D872D3A01C92ED82E96012619D2
:101D700037092F5F3F4F048CF58DE02DA301BE0185
:101D8000C5010995DF91CF911F910F91FF90EF90C1
:101D9000DF90CF90BF90AF909F908F907F906F908B
:101DA00008954615570591F42617370724F0892D15
:101DB0004B01C22FD82F9E01281939092F5F3F4FA1
:101DC000068CF78DE02DA601B401DACF0284F385ED
:101DD000E02D0995D501ED91FC910488F589E02D60
:101DE00083019401A601BE01C5010995D501ED91BC
:101DF000FC910688F789E02DC501DF91CF911F91F5
:101E00000F91FF90EF90DF90CF90BF90AF909F9099
:101E10008F907F906F900994EF92FF920F931F9392
:101E2000DC011A960D911C911B9718962D913C91EF
:101E30001997ED91FC9100A0F1A1E02D7B0150E0FC
:101E400040E070E060E009951F910F91FF90EF90E6
:101E500008954F925F926F927F928F929F92AF926E
:101E6000BF92CF92DF92EF92FF920F931F93CF9387
:101E7000DF936C012B015A0139014801DC01ED911E
:101E8000FC910284F385E02D0995E201640C751C38
:101E9000D601ED91FC91C615D7055CF40088F18957
:101EA000E02D87019401A501BE01C6010995219687
:101EB000EFCF0688F789E02DC601DF91CF911F9102
:101EC0000F91FF90EF90DF90CF90BF90AF909F90D9
:101ED0008F907F906F905F904F9009948F929F9218
:101EE000AF92BF92CF92DF92EF92FF920F931F9328
:101EF000CF93DF93EC015B014A016901E881F9812D
:101F00000284F385E02D099595012C0D3D1D21508E
:101F10003109E881F9810488F589E02D780184018F
:101F2000A401B501CE010995E881F9810688F789F8
:101F3000E02DCE01DF91CF911F910F91FF90EF9097
:101F4000DF90CF90BF90AF909F908F9009948F9229
:101F50009F92AF92BF92CF92DF92EF92FF920F9338
:101F60001F93CF93DF93EC015B014A016901780174
:101F7000E881F9810284F385E02D0995C80CD91C0C
:101F8000860101501109E881F9810488F589E02D65
:101F90009501A401B501CE010995E881F981068872
:101FA000F789E02DCE01DF91CF911F910F91FF9026
:101FB000EF90DF90CF90BF90AF909F908F9009945B
:101FC000EF92FF920F931F93DC01ED91FC9100A023
:101FD000F1A1E02D09951F910F91FF90EF900895C9
:101FE0000F931F93DC01ED91FC91068CF78DE02D92
:101FF00009951F910F9108950F931F93DC01ED91A7
:10200000FC91048CF58DE02D09951F910F91089599
:10201000DC01ED91FC910084F185E02D09943F9263
:102020004F925F926F927F928F929F92AF92BF92E8
:10203000CF92DF92EF92FF920F931F93CF93DF9394
:1020400000D000D0CDB7DEB75C013B016A01490189
:10205000280187E0480E511C93E0559447949A95C7
:10206000E1F7CA018E0D9F1D9A838983F12CE12C23
:10207000312C1C821B828B819C8187709927330CA9
:10208000892B61F4EB81FC8183E0F595E7958A95D6
:10209000E1F7EE0DFF1DE80DF91D349037FE0AC083
:1020A00021E030E0A6016B817C81660D771DC501C2
:1020B0000E9408108B819C8101969C838B8308175A
:1020C0001907C9F69FEFC91AD90AE40CF51C8981D2
:1020D0009A81C816D90669F60F900F900F900F904D
:1020E000DF91CF911F910F91FF90EF90DF90CF90F4
:1020F000BF90AF909F908F907F906F905F904F9028
:102100003F9008952F923F924F925F926F927F92ED
:102110008F929F92AF92BF92CF92DF92EF92FF92F7
:102120000F931F93CF93DF9300D000D000D0CDB793
:10213000DEB73C016A013E832D83FC82EB825801AD
:10214000A41AB50AB7FE03C0B194A194B1088D805A
:102150009E80861A970A97FE03C0919481949108F5
:102160008A149B045CF0902F812F0D811E819D832A
:102170008E839C2D8D2D6B01692F782F0C151D05DD
:102180005CF09D818E817E836D83692F782F902FE7
:10219000812F8601C92ED82E1601201A310A2B0153
:1021A0002D813E81421A530A57FE03C05194419437
:1021B0005108710137FE03C03FEFE31AF30AF594AB
:1021C000E7948D819E81861797075CF5A1E0B0E0CA
:1021D000BA83A983C016D1064CF1D301ED91FC91CD
:1021E0000484F585E02D2B813C81A8016D817E81E1
:1021F0008A149B041CF04D815E81B801C3010995CE
:10220000E418F508F7FE0AC02D813E8189819A8184
:10221000280F391F3E832D83E20CF31C0F5F1F4FE5
:10222000D9CF2FEF3FEF3A832983D4CF26960FB62D
:10223000F894DEBF0FBECDBFDF91CF911F910F91FC
:10224000FF90EF90DF90CF90BF90AF909F908F90D6
:102250007F906F905F904F903F902F9008950895DA
:102260002091F901260F3327331F21323105ECF479
:1022700020917402FC0190E080E0243069F082E05B
:102280000895A091F9012191AC0147525E4FA40F2E
:10229000B52FB11D2C930196861798F38091F90103
:1022A000680F6093F90180E0089581E0089510922D
:1022B000740281E08093730210924E0261E082E129
:1022C0000E94170761E083E10E941707E9EBF0E045
:1022D00080818E7F808380818D7F808388E480935E
:1022E000B80085E48093BC00089510922D021092EE
:1022F0002C0210927B0210929D020E94571185E1E0
:1023000097E090932B0280932A0286E197E09093C6
:102310002902809328020895CF93DF9391E0909350
:10232000D8018823B9F0C091B800D091BA0080914B
:10233000BC008A7B8093BC0060E082E10E941707AA
:1023400060E083E10E9417070E945711D093BA0002
:10235000C093B800DF91CF9108958F929F92AF9272
:10236000BF92CF92DF92EF92FF920F931F93CF9382
:10237000DF93D0919D02D13208F0D7C0182FC091C1
:102380009C020E9463076B017C01809174028111A1
:102390006BC082E080937402109373028FEF80937E
:1023A000720210927102D0937002ACE7B2E0E0E5E5
:1023B000F2E080E0D81391C010924F0280914F025A
:1023C000CC0FC82BC0934F0280914E02813009F090
:1023D00088C010924E020E9463076B017C018091BD
:1023E0004F028093BB008091760290917702A0917A
:1023F0007802B0917902892B8A2B8B2BA1F00E9455
:102400006307009176021091770220917802309153
:1024100079026C197D098E099F090617170728078D
:10242000390708F442C08091BC0083FDD8CF85EC09
:102430008093BC000E9463076B017C018091740251
:10244000823009F450C0809172028F3F09F46FC04E
:1024500080917202803209F46CC0809172028033E4
:1024600009F469C084E026C08091760290917702D9
:10247000A0917802B0917902892B8A2B8B2B09F4D9
:1024800084CF0E9463078090760290907702A0909C
:102490007802B09079026C197D098E099F09861621
:1024A0009706A806B90608F070CF809175020E94C1
:1024B0008C1185E010927B0210929D0210927A029C
:1024C000DF91CF911F910F91FF90EF90DF90CF9010
:1024D000BF90AF909F908F9008959D9191938F5F43
:1024E00069CF85EEA5CF8091760290917702A09179
:1024F0007802B0917902892B8A2B8B2B09F49ECF1D
:102500000E94630700917602109177022091780271
:10251000309179026C197D098E099F0906171707FA
:102520002807390708F08ACFC0CF81E0C3CF80E009
:10253000C1CF82E0BFCF83E0BDCF1F93CF93DF93A6
:10254000EA01122FDC0111968D919C91DC01ED9135
:10255000FC910280F381E02D0995C817D90729F471
:10256000812F0E94AD1191E0811190E0892FDF91C0
:10257000CF911F910895E0912D0280912C02E817D0
:1025800030F4F0E0E25DFD4F808190E008958FEF40
:102590009FEF089590912D0280912C022FEF3FEF35
:1025A000981748F4E92FF0E0E25DFD4F208130E01C
:1025B0009F5F90932D02C901089580912C02909104
:1025C0002D02891B990B0895CF92DF92EF92FF9213
:1025D0000F931F93CF93DF937C01CB018A0120914E
:1025E0007A02222389F0EB016B01C40ED51ECC15B3
:1025F000DD0569F06991D701ED91FC910190F081C1
:10260000E02DC7010995F3CF642F0E943011C80156
:10261000DF91CF911F910F91FF90EF90DF90CF90BE
:102620000895CF93DF931F92CDB7DEB769832091D2
:102630007A022223F9F020919D02203258F021E005
:1026400030E0FC013383228390E080E00F90DF9143
:10265000CF91089580917B02E82FF0E0E458FD4F80
:10266000998190838F5F80937B0280939D0281E0AC
:1026700090E0ECCF61E0CE0101960E943011F7CFDF
:1026800081E00C94AD11EF92FF920F931F93CF93C3
:10269000DF937C01C62F80916403909165030097BE
:1026A00009F459C02091680331E030937A022093F5
:1026B0009C0210927B0210929D02DC01ED91FC9134
:1026C0000190F081E02D60E009958701EE24E3940C
:1026D000F12CD1E0C1508091640390916503CF3F0C
:1026E00091F1B0E2EB16F104D8F00E944013809112
:1026F00064039091650320916803D0937A0220933C
:102700009C0210927B0210929D02DC01ED91FC91E3
:102710000190F081E02D60E00995EE24E394F12C26
:102720008091640390916503F8016491DC01ED915F
:10273000FC910190F081E02D0995BFEFEB1AFB0AA7
:102740000F5F1F4FC7CFDF91CF911F910F91FF9068
:10275000EF900C944013E0917403F0917503908115
:1027600080917A038095892380838701C15008F482
:1027700038C0F80184912091620330916303232BC8
:1027800029F00E941E0B0F5F1F4FF0CF28E030E0B2
:1027900040E8E0917003F091710390917803582F15
:1027A0005423D9F05081952B9083E0917203F091DE
:1027B0007303908150917903952B9083E09172037C
:1027C000F0917303508190917903909595239083B4
:1027D000469521503109E9F6D6CF50819095952341
:1027E000E3CFDF91CF911F910F91FF90EF9008956C
:1027F0001F93CF93DF93EC018D8D9E8D009721F178
:10280000162F29A131E030937A0220939C02109276
:102810007B0210929D02DC01ED91FC910190F08110
:10282000E02D60E009958D8D9E8DDC01ED91FC9190
:102830000190F081E02D612F09958D8D9E8DDF91A6
:10284000CF911F910C944013ADA5BEA59C918BA96F
:10285000809589238C938B8D9C8D892B31F0862FCD
:10286000DF91CF911F910C941E0B28E030E080E89F
:10287000A9A5BAA599A9462F4823C1F04C91942B3C
:102880009C93ABA5BCA59C914AA9942B9C93ABA50A
:10289000BCA54C919AA9909594239C938695215020
:1028A000310931F7DF91CF911F9108954C919095A7
:1028B0009423E6CF1F93CF93DF93EC01162F8D8DDA
:1028C0009E8D892BB1F12DA93EA94FA958AD60E08D
:1028D00074E284EF90E00E94AC1F2051310941095D
:1028E000510956954795379527952093B80066EA84
:1028F000111167EACE010E94F8138D8D9E8D892BF0
:1029000041F129AD3AAD4BAD5CAD60E074E284EFCE
:1029100090E00E94AC1F20513109410951095695A0
:102920004795379527952093B800DF91CF911F9158
:1029300008958B8D9C8D892B21F08EAD9FAD0E94CB
:10294000250BEFA5F8A990818CA980958923808318
:10295000CECFEFA5F8A980819CA9892B8083E5CFF4
:10296000CF93DF93EC018B818823A9F089819A8131
:10297000288131E030937A0220939C0210927B02EE
:1029800010929D020E94401391E0811190E0892FE6
:10299000DF91CF9108950E94751181E08B83CE0164
:1029A0000E94B014982F8111E1CFF1CF90E080E028
:1029B00008952F923F924F925F926F927F928F92E3
:1029C0009F92AF92BF92CF92DF92EF92FF920F93BE
:1029D0001F93CF93DF935C011B016A01F12CE12C63
:1029E000D50114968D919C9186010E191F098017AF
:1029F000910708F48C01F501D0810E9463072B0137
:102A00003C0180917402811172C0C02F013208F024
:102A1000C0E2F1E0F093740221E0C601801B910B4B
:102A2000E816F90608F420E0209373028FEF8093F4
:102A30007202109271028C0F80937002A1E0A09339
:102A40004F0280914F02DD0FD82BD0934F0280911F
:102A50004E02813009F090C010924E020E9463072E
:102A60002B013C0180914F028093BB008091760244
:102A700090917702A0917802B0917902892B8A2BEC
:102A80008B2BA1F00E946307209176023091770290
:102A90004091780250917902641975098609970965
:102AA000261737074807590708F442C08091BC0031
:102AB00083FDD8CFB5ECB093BC000E9463072B0117
:102AC0003C0180917402813009F45AC080917102F6
:102AD0008C1710F4C0917102A0E5B2E0EEE2F2E0D2
:102AE00080E08C1751F19D9191938F5FFACF809187
:102AF000760290917702A0917802B0917902892BA9
:102B00008A2B8B2B09F47DCF0E94630720917602DC
:102B100030917702409178025091790264197509D9
:102B200086099709261737074807590708F069CF1C
:102B3000809175020E948C11C0E010922D02C0930A
:102B40002C02C017110609F057C041018E0C9F1CC2
:102B5000E401CE01881999098017910798F5D501EC
:102B600011968D919C91DC01ED91FC910284F3858D
:102B7000E02D09958993EDCFE5EEE093BC009DCF64
:102B80008091760290917702A0917802B0917902BB
:102B9000892B8A2B8B2B09F494CF0E9463072091F9
:102BA000760230917702409178025091790264194F
:102BB000750986099709261737074807590708F046
:102BC00080CFB6CFE00EF11EEC14FD0408F408CF60
:102BD00081E0DF91CF911F910F91FF90EF90DF90F7
:102BE000CF90BF90AF909F908F907F906F905F90AD
:102BF0004F903F902F90089580E0EBCF20914D03B0
:102C000030914E03C901079697FD079623E09595ED
:102C100087952A95E1F720914B0330914C03829FD1
:102C2000A001839F500D929F500D112470E060E031
:102C300080916603909167030C94FE200E94F92016
:102C4000FB0101900020E9F73197AF01461B570BBC
:102C5000DC01ED91FC910280F381E02D09940F934A
:102C60001F93CF93DF93EC010E9420168C0168E53F
:102C700071E0CE010E942016800F911FDF91CF914D
:102C80001F910F91089585ED8093BC00809176028D
:102C900090917702A0917802B09179020796A11DD8
:102CA000B11D23E0B695A795979587952A95D1F7FD
:102CB0002091BC0024FD03C010927402089540913D
:102CC0007602509177026091780270917902452BDB
:102CD000462B472B69F30097A105B10541F02AE285
:102CE0002A95F1F700C00197A109B109E1CF8091C0
:102CF00075020C948C116F927F929F92AF92BF924B
:102D0000CF92DF92EF92FF920F931F93CF93DF93B7
:102D1000CDB7DEB76C970FB6F894DEBF0FBECDBF50
:102D2000198200911D0210911E02D80114968D91F6
:102D30009C911597892BE9F08C9191E090937A0200
:102D400080939C0210927B0210929D0220E041E051
:102D500050E0BE016F5F7F4FC8010E949D12882323
:102D600041F047E050E0BE016F5F7F4FC8010E9415
:102D7000D91429812F77AA80BB80822F90E0F4E0BC
:102D800095958795FA95E1F7982F990F990F982EB9
:102D9000991A990C920E892D90E0209100013091A2
:102DA00001018217930709F4C8C190930101809330
:102DB00000010E94FE1581E090E090935A038093F9
:102DC00059039093580380935703DD24D394D092F2
:102DD0005B03D0925C038E01055E1F4F9E01275E50
:102DE0003F4FAE01495E5F4FBE016B5E7F4F8BE58B
:102DF00091E00E9488052B8D3C8D80E190E0821B44
:102E0000930B96958795E0E86E2E712C298D3A8D5F
:102E1000F301E21BF30B9F01369527953093540382
:102E20002093530390935603809355036BE571E011
:102E300087E493E00E942016D0925B03D0925C035B
:102E4000CB8CDC8CF6E0CF0ED11C8F89988DC80E10
:102E5000D91EEE24E394F12C860120E830E0A6018F
:102E600070E060E087E493E00E94940E8E01055EBE
:102E70001F4F9E01275E3F4FAE01495E5F4FBE016F
:102E80006B5E7F4F87E691E00E948805898D9A8D61
:102E9000681A790A76946794709254036092530387
:102EA000C6010696909356038093550367E671E03A
:102EB00087E493E00E942F161F929F928A2D90E044
:102EC00024E0959587952A95E1F7982F990F990F0A
:102ED000891B880F8A0D1F928F938B2D90E034E011
:102EE000959587953A95E1F7982F990F990F891B3A
:102EF000880F8B0D1F928F9380E791E09F938F93A4
:102F00000A5111091F930F930E9405211092540337
:102F10001092530342E1C40ED11CD0925603C092CA
:102F20005503B80187E493E00E942F1669E871E029
:102F300087E493E00E942F1665E971E087E493E04F
:102F40000E942F166EE971E087E493E00E9420163C
:102F500040915503509156034850510960915303D5
:102F600070915403E8E0EE2EF12C08E010E02DE61D
:102F700030E087E493E00E940F106FEA71E087E48D
:102F800093E00E942F160FB6F894DEBF0FBECDBFA0
:102F90008091640390916503892B09F496C0209178
:102FA0007C0330917D0340917E0350917F0360E06C
:102FB00074E284EF90E00E94AC1F20513109410976
:102FC000510956954795379527952093B80065E0A8
:102FD00088E690E00E94431360914B03615087E4C0
:102FE00093E00E94F81320914D0330914E03C901E4
:102FF000079697FD079623E0959587952A95E1F723
:1030000020914B0330914C03829F5001839FB00C61
:10301000929FB00C1124C0906603D09067038091FA
:10302000640390916503AC0CBD1C009709F499C032
:103030002091680331E030937A0220939C02109231
:103040007B0210929D02DC01ED91FC910190F081D8
:10305000E02D60E4099501E010E0992493948091BB
:10306000640390916503AC14BD0409F445C00032BB
:103070001105D0F00E944013809164039091650384
:103080002091680390927A0220939C0210927B0216
:1030900010929D02DC01ED91FC910190F081E02DF8
:1030A00060E4099501E010E080916403909165036C
:1030B000F60161916F01DC01ED91FC910190F081CD
:1030C000E02D09950F5F1F4FCACF80916203909149
:1030D0006303892B31F080918503909186030E94D0
:1030E000250BE0917603F0917703908180917B032B
:1030F0008095892380836BCF0E9440138091640365
:1031000090916503892B09F46FC020918003309161
:103110008103409182035091830360E074E284EF65
:1031200090E00E94AC1F2051310941095109569588
:103130004795379527952093B8006C960FB6F8946D
:10314000DEBF0FBECDBFDF91CF911F910F91FF90DA
:10315000EF90DF90CF90BF90AF909F907F906F9057
:103160000895E0917403F0917503808190917A0342
:10317000892B8083AC14BD0409F2F60181916F01A3
:103180002091620330916303232B19F00E941E0BE0
:10319000F1CF28E030E040E8E0917003F091710356
:1031A00090917803582F5423D9F05081952B908318
:1031B000E0917203F0917303908150917903952B04
:1031C0009083E0917203F0917303508190917903A1
:1031D000909595239083469521503109E9F6CACF01
:1031E000508190959523E3CFE0917603F09177039A
:1031F000808190917B03892B80839FCF1F920F92B8
:103200000FB60F9211242F933F938F939F93AF93F9
:10321000BF938091200290912102A0912202B0914F
:10322000230230911F0223E0230F2D3758F501961A
:10323000A11DB11D20931F028093200290932102B3
:10324000A0932202B0932302809124029091250240
:10325000A0912602B09127020196A11DB11D809375
:10326000240290932502A0932602B0932702BF91D7
:10327000AF919F918F913F912F910F900FBE0F9023
:103280001F90189526E8230F0296A11DB11DD2CFDD
:103290001F920F920FB60F9211242F933F934F93CB
:1032A0005F936F937F938F939F93AF93BF93EF93AE
:1032B000FF938EE992E00E943808FF91EF91BF9151
:1032C000AF919F918F917F916F915F914F913F91BE
:1032D0002F910F900FBE0F901F9018951F920F9275
:1032E0000FB60F9211242F938F939F93EF93FF9319
:1032F000E091AE02F091AF028081E091B402F091D2
:10330000B50282FD1BC090818091B7028F5F8F73E1
:103310002091B802821741F0E091B702F0E0E25646
:10332000FD4F958F8093B702FF91EF919F918F9101
:103330002F910F900FBE0F901F9018958081F4CFA2
:103340001F920F920FB60F9211242F933F934F931A
:103350005F936F937F938F939F93AF93BF93EF93FD
:10336000FF938091B900887F803609F44AC0F0F558
:10337000883209F4A7C018F5803109F49BC0B8F46D
:10338000882309F4F9C0883009F494C0FF91EF91C3
:10339000BF91AF919F918F917F916F915F914F916D
:1033A0003F912F910F900FBE0F901F90189588316D
:1033B00009F488C0803251F78093720214C08034BF
:1033C00009F49DC040F48033B9F38833F9F6809353
:1033D000720285ECB0C0803509F485C0883509F4E7
:1033E00096C0883499F60E944316D0CF883909F4E4
:1033F0008CC038F5883729F050F4883611F08037C2
:1034000029F683E08093740210921B0257C088381B
:1034100009F47BC0803919F0803809F0B7CF80916A
:103420001B02803208F071C0E0911B0281E08E0F18
:1034300080931B028091BB00F0E0E550FE4F80833B
:103440003DC0803B39F0E0F4803A09F479C0883A15
:1034500009F09CCF84E0809374021092FA011092DC
:10346000F901E0912A02F0912B0209958091F9016E
:1034700081110FC081E08093F9011092D90109C038
:10348000803C09F4A6CF883C09F4A3CF883B09F01F
:103490007DCFE091FA0181E08E0F8093FA01F0E098
:1034A000E752FE4F80818093BB009091FA0180919A
:1034B000F90129C080914F028093BB0085EC809375
:1034C000BC0064CF9091710280917002981758F5FA
:1034D000E091710281E08E0F80937102F0E0E05B79
:1034E000FD4F8081E9CFE091710281E08E0F8093E2
:1034F00071028091BB00F0E0E05BFD4F8083909112
:103500007102809170029817C8F285E8D8CFE091D7
:10351000710281E08E0F809371028091BB00F0E018
:10352000E05BFD4F80838091730281115CCF81E06D
:1035300080934E0284EA8093BC001092740226CFDE
:1035400085EC8093BC001092740280911B02803243
:1035500030F4E0911B02F0E0E550FE4F10826091E4
:103560001B0270E0E0912802F09129028BEF91E0BC
:10357000099510921B020ACF1092720234CFFC01FF
:10358000908190539A3008F090E0818180532AE036
:10359000929F800D11240895EEE9F2E013821282C9
:1035A00048EE53E060E070E04483558366837783A0
:1035B0008CE091E09183808385EC90E0958784870F
:1035C00084EC90E09787868780EC90E0918B808BED
:1035D00081EC90E0938B828B82EC90E0958B848BD6
:1035E00086EC90E0978B868B118E128E138E148E44
:1035F000ABE3B3E013961C921E92129714964D9370
:103600005D936D937C9317978EE191E011969C9357
:103610008E93E7E4F3E01382128220E830E03583F2
:10362000248380E490E09783868331872087938783
:103630008287168A158614861786168681E0858B02
:10364000848B2FEF3FEF338B228B318B208B878B3B
:10365000108E128E118E80E391E091838083148E00
:10366000138EB68FA58F10A2178E8FEF84A385A31C
:1036700086A387A380A780E89AE1A6E0B0E085ABA7
:1036800096ABA7ABB0AF80EA96E8A1E0B0E081AF1F
:1036900092AFA3AFB4AF80E586AF17AE0895CF93D6
:1036A000DF93CDB7DEB72C970FB6F894DEBF0FBE11
:1036B000CDBF789484B5826084BD84B5816084BDBB
:1036C00085B5826085BD85B5816085BD80916E00C0
:1036D000816080936E0010928100809181008260F1
:1036E000809381008091810081608093810080912E
:1036F00080008160809380008091B100846080931D
:10370000B1008091B00081608093B00080917A0018
:10371000846080937A0080917A00826080937A003E
:1037200080917A00816080937A0080917A0080682D
:1037300080937A001092C100E091AE02F091AF0246
:1037400082E08083E091AA02F091AB021082E091C6
:10375000AC02F091AD028FEC80831092B602E09142
:10376000B202F091B30286E08083E091B002F09162
:10377000B102808180618083E091B002F091B1025A
:10378000808188608083E091B002F091B1028081F5
:1037900080688083E091B002F091B10280818F7DDA
:1037A000808380911D0290911E02009711F00E946B
:1037B000702086E090E00E94D41F7C0188E6F7012B
:1037C00080838BE393E092838183138280E290E095
:1037D00095838483F0921E02E0921D020E9475116F
:1037E00001E0F7010383C7010E94B014811107C0F3
:1037F00062EB71E08EE992E00E942F16FFCF1C86EB
:1038000080911D0290911E02FC0124813581232BA1
:1038100089F0208100937A0220939C0210927B020F
:1038200010929D0221E041E050E0BE01645F7F4FB5
:103830000E949D1241E050E0CE0101967C01BC0146
:1038400080911D0290911E020E94D914898190E0FE
:10385000880F892F881F990B892B09F4A2C04BE090
:1038600050E06AE57AE0C7010E94601FCE010A9627
:103870000E94BF1A082FE981E154E331D8F40E2EDB
:10388000000CFF0BEA5BF34E0C94CE1F0B1D5A1C71
:103890005A1C1F1D5A1C591C5A1C5A1C5A1CFF1C0E
:1038A0005A1C5A1C121D1D1D1B1D5A1C5A1C5A1C29
:1038B000191D12E0CE0105960E94BF1AD82E48E0CD
:1038C00050E061E57AE0C7010E94601FC7010E94D5
:1038D000BF1AC82ECE0104960E94BF1AB82ECE0180
:1038E00007960E94BF1A382F86E0F70111928A9539
:1038F000E9F72AE0832F622F0E94A01F982F880FDC
:10390000890F880F830F8A838B2D0E94A01F982F09
:10391000880F890F880F8B0D8B838C2D0E94A01F21
:10392000982F880F890F880F8C0D8C838D2D0E9406
:10393000A01F982F880F890F880F8D0D8E83812FE0
:103940000E94A01F982F990F890F880F180F1F83AF
:10395000802F0E94A01F982F880F890F880F800F3B
:10396000888780911D0290911E02FC01248135817F
:103970002830310580F0208131E030937A022093A5
:103980009C0210927B0210929D0221E048E050E0E0
:10399000B7010E949D1264EC71E08EE992E00E94F2
:1039A0002F168091660390916703892B09F449C013
:1039B0000E94FE1580914D0390914E0360914B0340
:1039C00070914C03813291050CF072C0AC014052F1
:1039D000510957FF02C04F5F5F4F55954795635799
:1039E000710977FF02C06F5F7F4F75956795F0E2B1
:1039F000EF2EF12C03E710E027E935E071C08A8152
:103A000011E0813609F456CF8B8117E08E3609F02C
:103A100051CF16E04FCF8B8118E0823709F04ACFA3
:103A200014E048CF8B8115E0823709F043CF13E0D3
:103A300041CF19E03FCF1AE03DCF1BE03BCF1CE068
:103A400039CF20914D0330914E03C901079697FD60
:103A5000079623E0959587952A95E1F720914B03EA
:103A600030914C03AC01429FC001439F900D529F87
:103A7000900D11240E94D41F9093670380936603D6
:103A8000892B09F095CF07E31AE0F80164916623CA
:103A900041F08EE992E00E945A080F5F1F4F892B78
:103AA000A1F768E571E08EE992E00E942016FFCF51
:103AB000AC014054510957FF02C04F5F5F4F55950D
:103AC00047956255710977FF02C06F5F7F4F75950B
:103AD000679510E4E12EF12C02E510E027E737E0CE
:103AE00087E493E00E940F1082E080936903809145
:103AF000640390916503892B09F4E5C08CE38093FE
:103B000068030E94751180916F0387FD1DC00E949C
:103B1000F60661E080916F030E94170761E070E094
:103B200080E090E00E94880760E080916F030E942F
:103B300017076AE070E080E090E00E94880761E08B
:103B400080916F030E941707809164039091650331
:103B5000892B09F46FC120917C0330917D03409142
:103B60007E0350917F0360E074E284EF90E00E9456
:103B7000AC1F205131094109510956954795379598
:103B800027952093B80064E083E995E00E944313F1
:103B900060914D03615087E493E00E94F81364E064
:103BA0008FE895E00E9443138091690364E18130BE
:103BB00009F460E187E493E00E94F81364E08BE885
:103BC00095E00E9443138FE88093840380914B0318
:103BD00090914C038038910509F045C180914D03C7
:103BE00090914E038034910509F04DC18091690395
:103BF000813009F436C18FEC8093840312E16AEDC1
:103C000087E493E00E94F813612F87E493E00E9419
:103C1000F81361E887E493E00E94F813609184034D
:103C200087E493E00E94F81369ED87E493E00E9433
:103C3000F8138091690361EF813009F462E287E44F
:103C400093E00E94F81366E085E895E00E94431334
:103C50008091640390916503892B09F418C1209128
:103C6000800330918103409182035091830360E08F
:103C700074E284EF90E00E94AC1F205131094109A9
:103C8000510956954795379527952093B80060EDD3
:103C900077E080E090E00E9488070E947B1600E0B9
:103CA00010E00E947B1668EE73E080E090E00E94D6
:103CB000880701151105A9F30E942408882389F3B8
:103CC0000E940000EECF80916D030E94F606809165
:103CD0006E030E94F60680916D03082E000C990B6E
:103CE000FC01E257F54FE491F0E0EE0FFF1FE658BC
:103CF000F54F259134913093750320937403FC01A3
:103D0000EE55F54FE491E0937A0380916E03082E0F
:103D1000000C990BFC01E257F54FE491F0E0EE0F37
:103D2000FF1FE658F54FA591B491B0937703A09388
:103D30007603FC01EE55F54FE491E0937B038C9103
:103D4000E82BEC938091620390916303892B89F1B6
:103D50001FB7F89480911C02811124C0E8E9FAE0B1
:103D60008491ECEAFAE09491E82FF0E0EE0FFF1F67
:103D7000EC57F54FA591B491EC91E92321F461E062
:103D80008AE00E9417078AE00E94F6068CB58061DF
:103D90008CBD8CB580648CBD8DE00E94F6068BE0F6
:103DA0000E94F60680911C028F5F80931C021FBF49
:103DB000AACE80916B030E94F60680916C030E944C
:103DC000F60680916B03082E000C990BFC01E2575C
:103DD000F54FE491F0E0EE0FFF1FE658F54F259107
:103DE00034913093710320937003FC01EE55F54F2D
:103DF000E491E093780380916C03082E000C990BFA
:103E0000FC01E257F54FE491F0E0EE0FFF1FE6589A
:103E1000F54FA591B491B0937303A0937203FC0185
:103E2000EE55F54FE491E09379038C91E095E8230A
:103E3000EC9369CE8091620390916303892B31F0FA
:103E400080918503909186030E94250BE091760373
:103E5000F0917703908180917B0380958923808303
:103E600092CE8FE9C9CE8036910569F480914D03D9
:103E700090914E03409739F480916903813029F085
:103E80008FEA8093840312E0BACE80E1FACFE0910A
:103E90007603F0917703808190917B03892B808357
:103EA000F6CE80E391E0909348038093470380919E
:103EB000660390916703009711F00C9470200895A9
:103EC000FB01DC0102C005900D9241505040D8F733
:103ED00008952F923F924F925F926F927F928F92AE
:103EE0009F92AF92BF92CF92DF92EF92FF920F9389
:103EF0001F93CF93DF93CDB7DEB7CA1BDB0B0FB693
:103F0000F894DEBF0FBECDBF09942A88398848884F
:103F10005F846E847D848C849B84AA84B984C884E5
:103F2000DF80EE80FD800C811B81AA81B981CE0FDC
:103F3000D11D0FB6F894DEBF0FBECDBFED010895C1
:103F4000991B79E004C0991F961708F0961B881FEB
:103F50007A95C9F780950895A1E21A2EAA1BBB1B7A
:103F6000FD010DC0AA1FBB1FEE1FFF1FA217B30745
:103F7000E407F50720F0A21BB30BE40BF50B661F5B
:103F8000771F881F991F1A9469F76095709580951F
:103F900090959B01AC01BD01CF010895EE0FFF1F6D
:103FA0000590F491E02D09940F931F93CF93DF9325
:103FB0008230910510F482E090E0E0918903F09165
:103FC0008A0330E020E0B0E0A0E0309799F42115BA
:103FD000310509F44AC0281B390B24303105D8F5C6
:103FE0008A819B816115710589F1FB01938382832D
:103FF000FE0111C040815181028113814817590788
:10400000E0F04817590799F4109761F012960C9355
:10401000129713961C933296CF01DF91CF911F9187
:104020000F9108950093890310938A03F4CF21150B
:10403000310551F04217530738F0A901DB019A010D
:10404000BD01DF01F801C1CFEF01F9CF90938A03E1
:1040500080938903CDCFFE01E20FF31F81939193EB
:104060002250310939832883D7CF2091870330919B
:104070008803232B41F420910401309105013093F2
:1040800088032093870320910201309103012115B9
:10409000310541F42DB73EB740910601509107011B
:1040A000241B350BE0918703F0918803E217F30797
:1040B000A0F42E1B3F0B2817390778F0AC014E5F98
:1040C0005F4F2417350748F04E0F5F1F509388034A
:1040D00040938703819391939FCFF0E0E0E09CCFE2
:1040E000CF93DF930097E9F0FC013297138212829D
:1040F000A0918903B0918A03ED0130E020E0109790
:10410000A1F420813181820F931F20918703309188
:1041100088032817390709F061C0F0938803E093FA
:104120008703DF91CF910895EA01CE17DF07E8F505
:104130004A815B819E0141155105B1F7E901FB837D
:10414000EA8349915991C40FD51FEC17FD0761F41B
:10415000808191810296840F951FE901998388835C
:10416000828193819B838A83F0E0E0E012968D91B7
:104170009C9113970097B9F52D913C911197CD0122
:104180000296820F931F209187033091880328178E
:10419000390739F6309751F510928A031092890346
:1041A000B0938803A0938703BCCFD383C28340819D
:1041B0005181840F951FC817D90761F44E5F5F4F77
:1041C00088819981480F591F518340838A819B813F
:1041D000938382832115310509F0B0CFF0938A03D0
:1041E000E09389039ECFFD01DC01C0CF13821282D0
:1041F000D7CF81E090E0F8940C94A623DC0101C0B5
:104200006D9341505040E0F70895AEE0B0E0EBE030
:10421000F1E20C94771F0D891E8986E08C831A8346
:1042200009838FEF9FE79E838D83AE01475E5F4FCB
:104230006F89788DCE0101960E9428212F813885C3
:10424000020F131FF80110822E96E4E00C94931FC6
:10425000ABE0B0E0EEE2F1E20C94691F7C013B01BF
:104260008A01FC0117821682838181FFC8C1CE01B9
:1042700001965C01F7019381F30193FD859193FF12
:1042800081913F01882309F453C1853239F493FDAC
:10429000859193FF81913F01853229F4B70190E028
:1042A0000E941823E7CF912C212C312CFFE1F3152C
:1042B00038F08B3211F190F4803209F1833229F118
:1042C00037FC3CC020ED280F2A3050F536FE20C0C8
:1042D0008AE0989E200D1124922E06C08D3291F016
:1042E000803371F7689430F8F30193FD859193FF63
:1042F00081913F018111DACF21C0689431F868942F
:1043000032F8F2CF689433F8EFCF689434F8ECCFFA
:10431000EAE02E9E200D1124222E689435F8E4CF79
:104320008E3229F436FC04C1689436F8DDCF8C3621
:1043300019F4689437F8D8CF8836B1F2982F9F7D5A
:1043400095549330E0F08336A1F18337C1F1833582
:1043500009F063C02801F2E04F0E511CF801C08043
:10436000D180692D70E036FC02C06FEF7FEFC6018F
:104370000E9402234C01689437F882010AC00C5F46
:104380001F4FFFE3F98388248394912C6501E894FF
:1043900037F833FE2DC0522C8114910471F555204D
:1043A00009F468CFB70180E290E00E9418235A9484
:1043B000F6CFF801808189830E5F1F4FE4CF28017B
:1043C000F2E04F0E511CF801C080D180692D70E0E1
:1043D00036FC02C06FEF7FEFC6010E940D234C0137
:1043E0008201D5CFB70180E290E00E9418232A9481
:1043F0002814190409F0B0F7CECFF60137FC8591E7
:1044000037FE81916F01B70190E00E94182351108F
:104410005A94F1E08F1A9108BFCF843619F089368B
:1044200009F077C0F80137FE6BC06081718182812D
:1044300093810C5F1F4FF32DFF763F2E97FF09C02E
:1044400090958095709561957F4F8F4F9F4F6894A1
:1044500037F82AE030E0A5010E944823C82ECA1888
:104460008C2C432C36FE0CC0E89440F8C91440F460
:1044700034FE05C032FC03C0F32DFE7E4F2E892C86
:1044800044FE95C0FE01EC0DF11D8081803309F0E2
:1044900087C0242D297E422E842D8870582E43FCFF
:1044A00095C040FE8FC09C2C821418F42C0C922CCA
:1044B000981844FE91C0B70180E390E00E94182351
:1044C00042FE09C088E790E041FE02C088E590E026
:1044D000B7010E941823C91408F48AC0CA94D12CC9
:1044E0009FEFC91AD90ACA0CDB1CF60182916F0131
:1044F000B70190E00E941823AC14BD04B1F74FCF70
:1045000060817181072E000C880B990B0E5F1F4F85
:1045100092CFD32CE894D4F82AE030E0853739F1F3
:10452000232D297FD22E8F3601F148F48835A9F04A
:10453000F701868197812B96E2E10C94851F8037E5
:1045400049F08837A9F7D4FE02C06894D2F820E178
:1045500030E00DC06894D4F8F6CF34FE03C0822F4B
:104560008660D82E20E132E002C028E030E0F80179
:10457000D7FE0FC060817181828193810C5F1F4FD4
:10458000A5010E944823C82ECA183D2CE89437F88C
:1045900067CF6081718190E080E00E5F1F4FF0CFA8
:1045A00042FC02C0839478CF8394839475CF842D8A
:1045B000867809F471CFF6CFB70180E290E00E94CF
:1045C000182383948214C0F3512C73CF522C5818A3
:1045D000821408F46ECFF8CF842D867809F47BCF4F
:1045E0008BE241FE80E247FC8DE2B70190E071CFA3
:1045F000B70180E390E00E9418239A946CCF8FEF6C
:104600009FEF99CFFC010590615070400110D8F7E1
:10461000809590958E0F9F1F0895FC01615070400A
:1046200001900110D8F7809590958E0F9F1F0895E7
:104630000F931F93CF93DF93182F092FEB018B81DB
:1046400081FD09C01FEF0FEF812F902FDF91CF91D8
:104650001F910F91089582FF14C02E813F818C819C
:104660009D81281739073CF4E881F981CF01019633
:104670009983888310838E819F8101969F838E8387
:10468000E3CFE885F985812F0995892BA1F3DACF4E
:10469000FA01AA27283051F1203181F1E8946F9373
:1046A0006E7F6E5F7F4F8F4F9F4FAF4FB1E03ED019
:1046B000B4E03CD0670F781F891F9A1FA11D680FB7
:1046C000791F8A1F911DA11D6A0F711D811D911DEA
:1046D000A11D20D009F468943F912AE0269F11245F
:1046E0003019305D3193DEF6CF010895462F4770C3
:1046F000405D4193B3E00FD0C9F7F6CF462F4F701E
:10470000405D4A3318F0495D31FD4052419302D07B
:10471000A9F7EACFB4E0A695979587957795679521
:10472000BA95C9F700976105710508959B01AC0121
:104730000A2E06945795479537952795BA95C9F748
:10474000620F731F841F951FA01D089515E0CCE50F
:10475000D5E004C0FE010E94CE1F2196CD35D107C1
:06476000C9F7F894FFCF39
:10476600FFFF00008B038000000000005A08BA0714
:10477600E707A7081808F6070A0800000000111343
:10478600E412D6148705DD12CA12BB12000000001F
:10479600630DBA07D6142F116E0A87050810E00FAD
:1047A600FC0FF00F82108705290B5A14DE09270A21
:1047B600290F0C0F940E350E0D0A0041562D524B43
:1047C600204D4B204949005061676520312F330049
:1047D6005254432054696D653A20253032643A2597
:1047E6003032643A253032640057504D3A20313227
:1047F6003077706D005248253A2034302500616DBF
:104806006269616E742074656D703A2036390020D5
:104816004300436F756C646E27742066696E64206E
:1048260052544300525443206973204E4F54207211
:08483600756E6E696E672100CA
:00000001FF
